S00D000074657374312E7372656326
S31508000000FF9F0020D544000825450008254500081F
S31508000010254500082545000825450008000000007C
S315080000200000000000000000000000002545000850
S31508000030254500080000000025450008254500085C
S3150800004025450008254500082545000825450008DA
S3150800005025450008254500082545000825450008CA
S3150800006025450008254500082545000825450008BA
S3150800007025450008254500082545000825450008AA
S31508000080254500082545000825450008254500089A
S31508000090254500082545000825450008254500088A
S315080000A0254500082545000825450008254500087A
S315080000B0254500082545000825450008254500086A
S315080000C0254500082545000825450008254500085A
S315080000D0254500082545000825450008254500084A
S315080000E0254500082545000825450008254500083A
S315080000F0254500082545000825450008254500082A
S315080001002545000825450008254500082545000819
S315080001102545000825450008993F0008254500089B
S3150800012025450008254500082545000825450008F9
S3150800013025450008254500082545000825450008E9
S3150800014025450008254500082545000825450008D9
S3150800015025450008254500082545000825450008C9
S3150800016025450008254500082545000825450008B9
S31508000170254500082545000825450008000000001B
S30D08000180254500082545000885
S3150800018810B5054C237833B9044B13B10448AFF3BB
S3150800019800800123237010BD3004002000000000F1
S315080001A86C450008084B10B51BB108490848AFF359
S315080001B800800848036803B910BD074B002BFBD01D
S315080001C8BDE81040184700BF0000000034040020AE
S315080001D86C4500083004002000000000704700BF86
S315080001E8F0B50368DD0783B004462FD5A5498A68A4
S315080001F802F00C02042A00F0F6808A6802F00C0263
S31508000208082A00F0EC806368B3F5803F00F02F8178
S31508000218B3F5A02F00F003819A4D2A6822F480329C
S315080002282A602A6822F480222A60002B40F000817E
S3150800023803F006FF064605E003F002FF801B642864
S3150800024800F2AC802B689B03F6D423689F072FD54A
S315080002588C4A916811F00C0F00F0A780916801F09C
S315080002680C01082900F09D80E368002B00F0EE8059
S31508000278854B844D01221A6003F0E2FE064605E026
S3150800028803F0DEFE801B022800F288802B687D4A70
S315080002989807F5D51168F82393FAA3F32069B3FAF2
S315080002A883F321F0F80100FA03F30B43136023687C
S315080002B81A0720D4590734D4A269CAB1714B996868
S315080002C801F00C01082977D0022A704A4FF000017C
S315080002D8116000F0D2801C4603F0B2FE054604E021
S315080002E803F0AEFE401B022858D823689B01F7D4B2
S315080002F8002003B0F0BD6369002B60D0644B614DE4
S3150800030801221A6003F09CFE064604E003F098FEF4
S31508000318801B022842D86B6F9F07F7D523685907B1
S31508000328CAD5584B5B4D002201921A6C42F080528E
S315080003381A641B6C03F080530193019B2B6843F4E2
S3150800034880732B6003F07CFE064604E003F078FE13
S31508000358801B022822D82B68DA05F7D5A368012B53
S3150800036800F0F680052B00F0DA80464D2A6F22F059
S3150800037801022A672A6F22F004022A67002B40F036
S31508000388D78003F05DFE41F2883607462B6F98073B
S3150800039892D503F055FEC01BB042F7D9032003B027
S315080003A8F0BD526856023FF55FAF364A12689507A0
S315080003B823D5E268012A20D0012003B0F0BD344ACB
S315080003C8304D136003F03CFE064604E003F038FEA1
S315080003D8801B0228E2D86B6F9807F7D49EE74A680D
S315080003E850027FF510AF274A126891037FF52EAFA2
S315080003F86268002A7FF42AAFDEE7224DF8222968C8
S3150800040892FAA2F22069B2FA82F221F0F80100FA09
S3150800041802F20A432A601A077FF54CAF6BE7194BB5
S315080004281A6842F480221A601A6842F480321A60FE
S3150800043803F006FE134D064604E003F001FE801B92
S315080004486428ABD82B689A03F7D5FEE60E4A0D4DF5
S31508000458136003F0F5FD064604E003F0F1FD801B82
S3150800046802289BD82B689907F7D4236820E7054AFA
S31508000478136843F480331360DAE71D4603F0E0FD9A
S3150800048806460FE00038024000004742600047422F
S31508000498800E47420070004003F0D2FD801B0228F8
S315080004A83FF67CAF2B682D4A9901F5D447F6C076F6
S315080004B896FAA6F64FF44033B6FA86F793FAA3F3F4
S315080004C84FF07065B3FA83F395FAA5F5A16A666ADB
S315080004D8D4F81CC0D4F820E0E06A4908BE400139BF
S315080004E84CEA0E07B5FA85F401FA03F347EA060556
S315080004F800FA04F12B431A480B43012153600160A3
S31508000508144603F09DFD054605E003F099FD401BDA
S3150800051802283FF643AF23689A01F6D5E8E60F4B5B
S315080005281A6F42F004021A671A6F42F001021A6734
S3150800053803F086FD094D074641F288362B6F9B075F
S315080005483FF5BAAE03F07CFDC01BB042F6D925E7E5
S31508000558024A136F43F001031367E9E700380240BC
S3150800056860004742F0B50D4689B0164610B3234CCD
S31508000578234800230293226B42F004022263216B6C
S31508000588059301F0040102914FF4007E03220299B3
S315080005980793022703A90692CDF80CE0049701F001
S315080005A8A7F9A36845EAC60223F078431A43A26066
S315080005B809B0F0BD114C0190226B42F0010222638A
S315080005C8226B02F00102019203464FF4807E032251
S315080005D801990C480593022703A907930692CDF8B3
S315080005E80CE0049701F084F9A36823F0EC6343EA66
S315080005F806021543A56009B0F0BD00BF00380240E1
S315080006080008024000000240014B01221A607047A8
S315080006184C004742014B00221A6070474C0047427B
S315080006281B4A936803F00C03042B2ED0082B2AD1F7
S315080006385368516803F03F0311F4800F47F6C070FA
S31508000648516890FAA0F047F6C07202EA0102B0FAB9
S3150800065880F022FA00F014BF0E4A0F4AB2FBF3F3F1
S315080006680B4A03FB00F352684FF4403090FAA0F0A7
S3150800067802F44032B0FA80F022FA00F00130400065
S31508000688B3FBF0F07047044870470248704700BF4C
S315080006980038024040787D010024F400564A136861
S315080006A803F00F038B422DE9F04109D2CBB2137040
S315080006B8136803F00F03994202D00120BDE8F081C0
S315080006C803689A0706D54D4D8268AC6824F0F0048D
S315080006D82243AA60DF0706460C4626D54368012B3F
S315080006E800F084809A1E012A444A126878D991072C
S315080006F8E3D5424DAA6822F003021343AB6003F020
S315080007089FFC7368012B074641F288384CD0022BA8
S3150800071855D0032B05D15DE003F092FCC01B40457C
S3150800072861D8AB6813F00C0FF6D1334A136803F097
S315080007380F039C4206D2E3B21370136803F00F0343
S315080007489C42BAD133685A0706D52C48F26881689C
S3150800075821F4E0510A4382601B0707D5274A316905
S31508000768936823F4604343EAC1039360FFF758FF8D
S31508000778224B0146F0229B6892FAA2F2B2FA82F25A
S3150800078803F0F003D3401E481E4AC35C0F2021FA23
S3150800079803F3136003F0A0FB0020BDE8F08103F023
S315080007A84FFCC01B40451ED8AB6803F00C03042B4E
S315080007B8F5D1BAE703F044FCC01B404513D8AB682B
S315080007C803F00C03082BF5D1AFE703F039FCC01B7F
S315080007D8404508D8AB6803F00C030C2BF5D1A4E701
S315080007E8900186D469E70320BDE8F081034A1268B8
S315080007F895033FF57EAF60E7003C024000380240AB
S315080008088445000800000020014B1868704700BF9F
S3150800081800000020084B4FF4E0529B6892FAA2F2B7
S31508000828B2FA82F203F4E053D3400449044ACB5C93
S315080008381068D840704700BF003802408445000851
S3150800084800000020084B4FF460429B6892FAA2F217
S31508000858B2FA82F203F46043D3400449044ACB5CF3
S315080008681068D840704700BF003802408445000821
S31508000878000000200F22374B02601A68510310B493
S3150800088859D54FF4A0234360324B32491B6813F0FD
S31508000898010318BF0123C360F8220B6892FAA2F273
S315080008A8B2FA82F203F0F803D34003610B6F5A07D2
S315080008B849D505238360274B26495B6F13F0010347
S315080008C818BF01234361234B1B68DB014CBF022376
S315080008D8012383614B6803F48003C3614B6803F003
S315080008E83F0303624C6847F6C07292FAA2F247F6CB
S315080008F8C073B2FA82F22340D34043624A684FF47F
S31508000908403393FAA3F302F4403202F580325200D8
S31508000918B3FA83F322FA03F383624B684FF07062E3
S3150800092892FAA2F2B2FA82F203F07063D340C36273
S315080009385DF8044B70471B6813F4803318BF4FF4EF
S3150800094880334360A0E70B6F13F0010318BF012338
S315080009588360B0E7003802400E4B0F2202609A689F
S3150800096802F0030242609A6802F0F00282609A680E
S3150800097802F4E052C2609B68DB0810B403F4E05343
S31508000988054C036123685DF8044B03F00F030B60FD
S31508000998704700BF00380240003C0240704700BF5D
S315080009A808B5054BDB681B0604D5FFF7F7FF034BAD
S315080009B880221A7008BD00BF003802400E3802406F
S315080009C8704700BF00284BD030B50223044689B0CB
S315080009D80D4680F83930FFF7F3FF211D206802F02D
S315080009E8E3FEAB6829682068032203F037F8206815
S315080009F8E96882696B6822F00C028261826913438E
S31508000A088361436843F0800343608368029123F057
S31508000A1870038360836843F040038360836823F028
S31508000A2807038360836843F0040383600025702303
S31508000A3801A901930595069507950495039503F06D
S31508000A48E7F823685A6822F070025A605A68012142
S31508000A5842F0500228465A6084F8391009B030BD69
S31508000A6801207047704700BF0223026810B580F856
S31508000A783930116A41F211130B40044643B9116A19
S31508000A8840F244430B401BB9136823F00103136073
S31508000A982046FFF7E7FF002084F8390084F8380075
S31508000AA810BD00BF10B5044601220068002103F0F6
S31508000AB8FBF92268136843F001031360002010BD90
S31508000AC8002210B504461146006803F0EDF92268BD
S31508000AD8116A41F211130B4043B9116A40F24443B3
S31508000AE80B401BB9136823F001031360002010BDDF
S31508000AF810B504460068C36843F00203C3600122C0
S31508000B08002103F0D1F92268136843F00103136042
S31508000B18002010BD002210B504461146006803F0EF
S31508000B28C3F92368DA6822F00202DA60196A41F220
S31508000B3811120A4042B9196A40F244420A401AB9DF
S31508000B481A6822F001021A60002010BDF8B590F85C
S31508000B583940E4B2022C28D090F83940E4B2012C86
S31508000B681DD0044616460D46012200210068104F7E
S31508000B7803F09AF92168206A0E4BC3632A4633465E
S31508000B88C764343100F034FC2368DA6842F400722A
S31508000B98DA601A6842F001021A600020F8BD01B945
S31508000BA81AB9022380F83930DBE72046F8BD00BFBA
S31508000BB87137000869350008002210B50446114641
S31508000BC8006803F071F92368DA6822F40072DA60BB
S31508000BD8196A41F211120A4042B9196A40F24442A6
S31508000BE80A401AB91A6822F001021A60002010BDD4
S31508000BF803680422186A02FA01F120EA0100186259
S31508000C081A6A114319625A6C42F400425A641A68FD
S31508000C1842F001021A600020704700BFFFF7E8BFDC
S31508000C280C2937D8DFE801F0303636362A36363614
S31508000C382436363607000368DA6842F01002DA60A6
S31508000C48DA6842F08002DA60186A042202FA01F1C8
S31508000C5820EA01021A621A6A114319625A6C42F4A6
S31508000C6800425A641A6842F001021A600020704766
S31508000C780368DA6842F00802DA60E1E70368DA68C6
S31508000C8842F00402DA60DBE70368DA6842F0020237
S31508000C98DA60D5E70368D3E7FFF7C2BF0C294FD850
S31508000CA8DFE801F0484E4E4E424E4E4E3C4E4E4EF2
S31508000CB807000368DA6822F01002DA601A6A042064
S31508000CC800FA01F122EA010119621A6A1A62196A16
S31508000CD840F244420A401AB9DA6822F08002DA6019
S31508000CE8196A41F211120A4042B9196A40F2444295
S31508000CF80A401AB95A6C22F400425A64196A41F22F
S31508000D0811120A4042B9196A40F244420A401AB90D
S31508000D181A6822F001021A60002070470368DA6828
S31508000D2822F00802DA60C9E70368DA6822F00402E2
S31508000D38DA60C3E70368DA6822F00202DA60BDE718
S31508000D480368BBE7FFF7AABFF8B590F83940E4B2DD
S31508000D58022C15D090F83940E4B2012C0CD00D4677
S31508000D6804460C2D65D8DFE805F00D646464536401
S31508000D786464316464644200002A5CD1002B5AD04A
S31508000D882046F8BD2668006A2D492E4FC163C764F8
S31508000D98114606F1340200F02BFB2368DA6842F4A0
S31508000DA80072DA60186A042202FA05F120EA0102DA
S31508000DB81A621A6A114319625A6C42F400425A6452
S31508000DC81A6842F001021A600020F8BD2668806A8F
S31508000DD81B491C4FC163C764114606F13C0200F063
S31508000DE807FB2368DA6842F40062DA60DAE72668FD
S31508000DF8C06A1349134FC163C764114606F1400216
S31508000E0800F0F6FA2368DA6842F48052DA60C9E72D
S31508000E182668406A0A490B4FC163C764114606F13A
S31508000E28380200F0E5FA2368DA6842F48062DA6084
S31508000E38B8E70368B6E7022480F839408FE700BFA9
S31508000E48B935000871370008FFF77EBF10B40C29BA
S31508000E584BD8DFE801F0444A4A4A3E4A4A4A384AE1
S31508000E684A4A07000368DA6822F48052DA601A6A7E
S31508000E78042404FA01F122EA010119621A6A1A62BB
S31508000E88196A41F211120A4042B9196A40F24442F3
S31508000E980A401AB95A6C22F400425A64196A41F28D
S31508000EA811120A4042B9196A40F244420A401AB96C
S31508000EB81A6822F001021A60012380F839305DF8B1
S31508000EC8044B002070470368DA6822F40062DA6087
S31508000ED8CDE70368DA6822F48062DA60C7E7036850
S31508000EE8DA6822F40072DA60C1E70368BFE700BF70
S31508000EF8FFF7ACBF03680422186A02FA01F120EA70
S31508000F08010018621A6A114319625A6C42F40042BF
S31508000F185A640020704700BF036804201A6A00FA5A
S31508000F2801F122EA01021A621A6A1A62196A41F278
S31508000F3811120A4022B9196A40F244420A407AB1A3
S31508000F48196A41F211120A4042B9196A40F2444232
S31508000F580A401AB91A6822F001021A600020704776
S31508000F685A6C22F400425A64EAE700BFFFF7D4BF76
S31508000F78FFF7D2BF0368DA6842F00202DA60DA6875
S31508000F8842F00402DA60186A042202FA01F120EA39
S31508000F98010018621A6A114319625A6C42F400422F
S31508000FA85A640020704700BF0368DA6822F0020214
S31508000FB8DA60DA6822F00402DA601A6A042000FAAB
S31508000FC801F122EA01021A621A6A1A62196A41F2D8
S31508000FD811120A4022B9196A40F244420A407AB103
S31508000FE8196A41F211120A4042B9196A40F2444292
S31508000FF80A401AB91A6822F001021A6000207047D6
S315080010085A6C22F400425A64EAE700BF90F838306E
S31508001018012B20D0012310B480F8383031F0300382
S31508001028036806D19C6824F070049C609C68214378
S315080010389960596841F001015960596821F004011D
S3150800104859605C68002122435A605DF8044B80F8B1
S3150800105838100846704702231846704790F8383003
S31508001068012B24D0012310B480F8383031F030032E
S31508001078036806D19C6824F070049C609C68214328
S31508001088996059685DF8044B41F00101596059683F
S3150800109821F00401596059680A435A60DA68002140
S315080010A842F02002DA6080F83810084670470223B2
S315080010B81846704790F83830012B28D0012370B4A9
S315080010C880F8383031F03003036806D19C6824F07C
S315080010D870049C609C68214399605968056B0D4C9F
S315080010E80D4E41F001015960596821F00401596013
S315080010F859680A435A60DA68EC6342F400520024D5
S31508001108EE64DA6080F83840204670BC70470221E1
S3150800111808467047E11100087137000890F838301A
S31508001128012B1DD002460220136830B482F8390014
S315080011385C6824F0700403C95C605C6820435860E6
S31508001148986820F080009860986800240125014373
S315080011589960204682F8395082F8384030BC704782
S315080011680220704790F83820012A1CD0F0B44A6843
S315080011780F688E68CD680C693A43324303462A439A
S31508001188486989691D68224302430A4302200124E3
S31508001198002183F839006A64084683F8394083F8D9
S315080011A83810F0BC70470220704700BF90F8382006
S315080011B8012A0DD00346006810B4002201240165EF
S315080011C8104683F8394083F838205DF8044B704791
S315080011D802207047704700BF08B5806B012380F866
S315080011E83930FFF7F7FF08BD704700BF90F8390098
S315080011F8704700BFF8B5044602F022FF002C6ED0EF
S315080012080222236884F835201A68002122F0010290
S3150800121884F8341005461A6005E002F011FF401BF1
S3150800122805283AD823681A68D107F6D404F10C00B9
S3150800123827C86768A6683E43304301431143E669F1
S31508001248206A1F68334A29430E43616A30433A4085
S31508001258042942EA000227D01A605A6922F00702CE
S315080012681143DAB22C4D5961103AA5FB021212093C
S315080012782A4823F47F73815CE16523F00303032A74
S3150800128888BF04333F228A4001250021A365084602
S315080012989A60616584F83550F8BD03232022626593
S315080012A8184684F83530F8BDE66A216BA06A3143DA
S315080012B80A431A605A6940F0040122F007021143EA
S315080012C87DB9012822D001D30228CAD1F201C8D58E
S315080012D8012340226265184684F83530F8BD012096
S315080012E8F8BDB5F5005F04D00228F1D90328B8D1AE
S315080012F8ECE70328B5D801A252F820F0D91200085D
S31508001308D5120008D912000815130008B6F1C07FCF
S31508001318A7D1DDE73F8010F0ABAAAAAA9445000832
S31508001328002830D090F83530DBB2022B2CD0036871
S315080013381649DAB270B4103A1C68154DA1FB0212A8
S315080013481209002124F0010421261C60196059603D
S315080013589960D96019615E6123F47F73AD5CC565D0
S3150800136823F00303032A88BF04333F2202FA05F150
S315080013780022836570BC9960426580F8342080F83D
S31508001388352010467047012318467047ABAAAAAA03
S315080013989445000870B490F83440012C0CD090F8A5
S315080013A835400125AC4280F8345008D0002380F82F
S315080013B83430022070BC7047022070BC704704683D
S315080013C80226002580F8356045652568866825F46F
S315080013D88020402E206063600BBFA260A160E16098
S315080013E8E260236843F0010323600020E2E700BFB8
S315080013F8F0B490F83440012C0DD090F83540866D3D
S315080014080125AC4280F8345008D0002380F83430DF
S315080014180220F0BC70470220F0BC70470468022717
S31508001428002580F8357045652568876825F4802580
S31508001438402F256063600ABFA260A160E160C16DA4
S3150800144818BFE2603F238B40026CB360236843F001
S3150800145816032360636943F0800363611AB123683E
S3150800146843F008032360236843F001032360002040
S31508001478CFE700BF70B50446866D02F0E1FD94F823
S315080014883530022B06D080220023626584F8343072
S31508001498012070BD2368216C1A6822F016021A60AA
S315080014A85A6922F0800205465A6131B31A6822F051
S315080014B808021A601A6822F001021A6005E002F0AA
S315080014C8BFFD401B05280FD823681B6813F00103C6
S315080014D8F5D1E16D3F228A400121B260184684F8A9
S315080014E8343084F8351070BD202200230320626545
S315080014F884F8343084F8350070BDA26C002AD5D13A
S31508001508D8E700BF90F83530022B03D0802343650F
S31508001518012070470268052380F83530136823F0E0
S3150800152801031360002070472DE9F04F044683B085
S315080015389346019102F084FD94F83530022B08D0C1
S3150800154880220023626584F83430012003B0BDE8A0
S31508001558F08F23681B68D90553D4019BE16D814632
S31508001568002B4BD010258D40D4F858A0DFF8F4800E
S31508001578DAF800303A4F08261D4231D1636DDA078A
S315080015882ED4BBF1FF3F09D0BBF1000F40D002F0C3
S3150800159857FDC9EB000083453AD3E16DDAF8003008
S315080015A806FA01F0034205D0626D42F0010262654F
S315080015B8CAF8080008FA01F0034205D0626D42F03D
S315080015C802026265CAF8080007FA01F00342D3D096
S315080015D8626D1D4242F004026265CAF80800CDD061
S315080015E8636D13B1636DDB0729D4019BD3B110234F
S315080015F803FA01F1CAF808100020A7E720258D404C
S31508001608B2E74FF480730120636503B0BDE8F08F35
S31508001618202100220123616584F8342084F83530B6
S31508001628032093E73023019A03FA01F10123CAF844
S315080016380810104684F8342084F8353086E72046A2
S31508001648FFF718FFE16D30238B4000250121CAF802
S315080016580830084684F8345084F8351076E700BF11
S315080016680400800001008000F0B583B00023876D70
S315080016780193C36D3D68624908229A40154204469B
S315080016880E6803D001680868400776D45D4A9A4010
S31508001698154203D021684969080668D45A4A9A4007
S315080016A8154203D02168096889075AD410229A4036
S315080016B8154203D02168086800073FD420229A40BB
S315080016C8154203D021680868C00625D4636D0BB394
S315080016D8636DDA071AD50523216884F835300B684F
S315080016E84A4A23F00103A2FB06020B60920A02E0AB
S315080016F80B68DB0704D5019B01339A420193F7D29D
S315080017080022012384F8342084F83530E36C0BB1C1
S315080017182046984703B0F0BDBA6094F83520052AE4
S315080017283BD00B6813F4802F0B6854D019035FD588
S31508001738E36B002BCAD020469847C7E7BA600A6801
S3150800174812F4802F0A6822D1D20503D40A6822F037
S3150800175808020A60226C002AB0D020469047E36D3A
S31508001768ACE7BA60626D42F0040262659EE7BA6049
S31508001778626D42F00202626590E7086820F004008C
S315080017880860BA60626D42F0010262657EE711037D
S31508001798E0D5A26C002AE0D190E70A68206C22F00E
S315080017A816020A604A6922F080024A6120B30A686A
S315080017B822F008020A603F22216D02FA03F300208C
S315080017C80122BB6084F8340084F835200029A1D0AA
S315080017D8204688479EE713F48073A9D10A68012032
S315080017E822F010020A6084F8343084F835009FE73E
S315080017F8636C002B9FD169E7A26C002AD7D1DAE778
S31508001808000000200100800004008000B5814E1BFE
S3150800181890F83430012B0FD010B4044690F83500F0
S315080018280123984284F8343008D00022184684F8F0
S3150800183834205DF8044B704702207047052916D8EE
S31508001848DFE801F0120F0C09060322650023ECE70E
S31508001858E2640023E9E7A2640023E6E7626400235A
S31508001868E3E722640023E0E7E2630023DDE70023D9
S31508001878DBE700BF90F83430012B02460BD090F80E
S3150800188835000123984282F8343006D000211846DC
S3150800189882F8341070470220704706291FD8DFE8F7
S315080018A801F01B1815120F0C04000023D3631364E8
S315080018B853649364D3641365E8E700231365E5E77F
S315080018C80023D364E2E700239364DFE70023536425
S315080018D8DCE700231364D9E70023D363D6E701239B
S315080018E8D4E700BF90F83500704700BF406D7047D1
S315080018F82DE9F04FDFF8ECC1D1F800E0DFF8E88110
S31508001908714F83B0002603E00136102E00F08E8052
S315080019180123B34033EA0E02F6D1D1F8049029F030
S315080019281004022C00F085804FEA460A032205684F
S3150800193802FA0AF2D24309F0030B15400BFA0AFB1E
S31508001948013C4BEA0505012C056040F29480C56800
S315080019588C682A4004FA0AF4224319F0805FC260A8
S31508001968D2D000220192DCF8444044F48044CCF8F2
S315080019784440DCF8444026F0030505F1804504F4A4
S31508001988804405F59C35019406F0030B019CD5F8AF
S3150800199808A04FEA8B0B0F2404FA0BF440452AEAF1
S315080019A8040A1DD002F1804202F50132904272D033
S315080019B8464A904273D0464A904274D0454A904265
S315080019C875D0454A904276D0444A904277D0444AE0
S315080019D890420BBF0722082402FA0BF204FA0BF20C
S315080019E84AEA0202AA603A68DC4319F4803F14BF3F
S315080019F81A4322403A607A6819F4003F14BF1A431A
S31508001A0822407A60BA6819F4801F14BF1A43224024
S31508001A18BA60FA6819F4001F06F101060CBF04EA51
S31508001A2802031343102EFB607FF472AF03B0BDE8C0
S31508001A38F08F4FEAD60A00EB8A0A06F00704DAF8A6
S31508001A4820500A69A4004FF00F0B0BFA04FB25EA8D
S31508001A580B05A2402A43CAF820204FEA460A032261
S31508001A68046802FA0AF2D24309F00305144005FA93
S31508001A780AF52C4304608468CD68144005FA0AF50B
S31508001A88254385604468C9F3001524EA0304B5406C
S31508001A982C4344605BE7012202FA0BF2A0E7022214
S31508001AA802FA0BF29CE7032202FA0BF298E70422E1
S31508001AB802FA0BF294E7052202FA0BF290E70622DD
S31508001AC802FA0BF28CE700BF003C0140000802400E
S31508001AD8000C0240001002400014024000180240A0
S31508001AE8001C024000380240000002402DE9F04F71
S31508001AF80023DFF84091DFF84081DFF840A102E0D3
S31508001B080133102B6ED0012707FA03F232EA0104D3
S31508001B18F6D14FF0030B03FA07F504680BFA05F537
S31508001B28ED4323FA0BFE2C4000EB8E0E046003F0FF
S31508001B380706DEF820404FF00F0CB6000CFA06F63A
S31508001B4824EA0606CEF8206084682C408460446837
S31508001B58D24314404460C46823F0030606F180465D
S31508001B68254006F59C36C56003EA0B04B568A4004B
S31508001B780CFA04FC484505EA0C0539D0504534D01A
S31508001B88264FB84236D0264FB84237D0254FB842E6
S31508001B9837D0254FB84238D0244FB84239D0244FC9
S31508001BA8B84221D0082707FA04F4A542A8D1B46890
S31508001BB824EA0C04B460D8F800401440C8F8004079
S31508001BC8D8F804401440C8F80440D8F80840144027
S31508001BD8C8F80840D8F80C4001332240102BC8F83A
S31508001BE80C2090D1BDE8F08F072707FA04F4DCE744
S31508001BF80024DAE7022707FA04F4D6E70BFA04F40E
S31508001C08D3E7042707FA04F4CFE7052707FA04F405
S31508001C18CBE7062707FA04F4C7E700BF000802401F
S31508001C28000C02400010024000140240001802404E
S31508001C38001C024000000240003C0140000402402B
S31508001C480369194214BF01200020704702B9090424
S31508001C5881617047436959404161704782B04FF4C2
S31508001C6880330193019B0B430193019BC361C161B7
S31508001C78019BC361C3690193C06980F48030C0F3CE
S31508001C88004002B0704700BF704700BF044A516958
S31508001C98014200D1704708B55061FFF7F5FF08BD46
S31508001CA8003C0140074AD1684FF6FF030B40000283
S31508001CB843F0BF6300F4E06043F400330343D360A2
S31508001CC8704700BF00ED00E0194BDB68C3F3022339
S31508001CD830B4C3F10705042D03F1040428BF04250D
S31508001CE8062C18D9033B01249C40013C22400124B8
S31508001CF8AC40013C214001FA03F3002842EA0302FA
S31508001D080CDB00F1604000F561401201D2B280F8A0
S31508001D18002330BC704700221346E8E7054B00F05D
S31508001D280F0012010344D2B21A7630BC704700BFBE
S31508001D3800ED00E0FCEC00E000F01F01012340097B
S31508001D48024A8B4042F82030704700BF00E100E0A5
S31508001D584309203300F01F000122034902FA00F064
S31508001D6841F82300704700BF00E100E0BFF34F8F3A
S31508001D780549064BCA6802F4E0621343CB60BFF311
S31508001D884F8F00BFFDE700BF00ED00E00400FA052D
S31508001D980138B0F1807F0ED2084B10B4084C586051
S31508001DA8F02084F823000022072110469A6019605B
S31508001DB85DF8044B70470120704700BF10E000E04B
S31508001DC800ED00E0F0B4134E4378B36003781BB90E
S31508001DD8F3603361F0BC70474368F360C47A037BE9
S31508001DE80578817A427B877B240644EA03742C4368
S31508001DF844EAC141C37B447A007A41EA824141EA0E
S31508001E08474242EA034242EA042343EA400333616B
S31508001E18F0BC704790ED00E0024BD868C0F302208A
S31508001E28704700BF00ED00E0002870B422DB00F11F
S31508001E38604000F5614090F80003000901F00701C9
S31508001E48C1F10706042E01F1040428BF0426062C4E
S31508001E580DD9033901248C40013C04400125B540BD
S31508001E68C840691E084010601C6070BC7047002492
S31508001E782146F3E7034C00F00F000444207E0009CE
S31508001E88DCE700BFFCEC00E04309403300F01F0024
S31508001E980122034902FA00F041F82300704700BFFF
S31508001EA800E100E04309054A403300F01F0052F8F4
S31508001EB8233023FA00F000F00100704700E100E043
S31508001EC84309603300F01F000122034902FA00F0B3
S31508001ED841F82300704700BF00E100E04309054ABE
S31508001EE8803300F01F0052F8233023FA00F000F080
S31508001EF80100704700E100E0044A136804280CBF93
S31508001F0843F0040323F004031360704710E000E06D
S31508001F18704700BF08B5FFF7FBFF08BDF0B5046AB0
S31508001F288F680E68144D24F001040462036A446835
S31508001F38826923F0020322F07302A84243EA0703E0
S31508001F4842EA060209D005F58065A84205D049681F
S31508001F584460826141630362F0BDCF684E698D694A
S31508001F6823F0080324F4407E3B4346EA050423F09D
S31508001F78040344EA0E04EAE700000140026A22F470
S31508001F888072F0B48E680F680262036A134D42685D
S31508001F98C46923F4007324F07304A84243EA0623A9
S31508001FA847EA040709D00E4CA04206D049684260A1
S31508001FB8C761C163F0BC03627047CE684D698C6916
S31508001FC823F4006322F4405243EA062342EA051240
S31508001FD823F4806342EA0412E8E700BF00000140E0
S31508001FE800040140F0B4046A8F680E68104D24F4A2
S31508001FF880540462026A4468C36922F4005223F4CE
S31508002008E643A84242EA073243EA06230AD005F518
S315080020188065A84206D049684460C361F0BC01647B
S31508002028026270474D6924F4804444EA8514F2E74D
S315080020380000014002684868936823F0700330B4CA
S3150800204803430C6823F0070323435028936036D0CC
S3150800205824D960280ED070280AD1CB688C68906875
S315080020680D69234320F47F410B4343EA0523936014
S3150800207830BC7047106A8C680D6920F01000106231
S315080020889169136A21F4704123F0A00341EA0531E6
S3150800209843EA0413916130BC136270474028E7D1BC
S315080020A8146A106A0D6920F001011162936923F018
S315080020B8F00343EA05139361146230BC7047136A48
S315080020C8106A8D680C6920F001001062916923F086
S315080020D80A0321F0F0012B4341EA0411916130BC4F
S315080020E813627047704700BF704700BF0223026833
S315080020F810B580F83930116A41F211130B400446BD
S3150800210843B9116A40F244430B401BB9136823F0DC
S31508002118010313602046FFF7E7FF002084F839001B
S3150800212884F8380010BD00BF0168022210B480F890
S3150800213839200A680124034622430A60002083F8E6
S3150800214839405DF8044B70470223026880F8393035
S31508002158116A41F211130B4043B9116A40F244431C
S315080021680B401BB9136823F001031360012380F899
S3150800217839300020704700BF0368DA6842F0010268
S31508002188DA601A6842F001021A600020704700BF38
S315080021980368DA6822F00102DA60196A41F2111254
S315080021A80A4042B9196A40F244420A401AB91A68FA
S315080021B822F001021A600020704700BF70B590F837
S315080021C83940E4B2022C21D090F83940E4B2012C07
S315080021D815D004461346C06922680D4E0D4DC663D0
S315080021E8C5642C32FFF704F92368DA6842F480726A
S315080021F8DA601A6842F001021A60002070BD19B147
S31508002208022380F83930E4E7002AF9D0204670BD61
S3150800221851350008713700080368D96821F48071B8
S31508002228D960196A41F211120A4042B9196A40F28C
S3150800223844420A401AB91A6822F001021A600123B0
S3150800224880F8393000207047704700BF704700BFD4
S315080022580223026810B580F83930116A41F2111361
S315080022680B40044643B9116A40F244430B401BB974
S31508002278136823F0010313602046FFF7E7FF0020E1
S3150800228884F8390084F8380010BD00BF03680120B7
S315080022981A6A00FA01F110B422EA0102154C1A6208
S315080022A81A6A1A62A34214D0134A934211D0196AB9
S315080022B841F211120A4042B9196A40F244420A40E8
S315080022C81AB91A6822F001021A6000205DF8044B50
S315080022D87047196A41F211120A40002AE7D1196AA9
S315080022E840F244420A40002AE1D15A6C22F40042DC
S315080022F85A64DCE70000014000040140704700BF4B
S31508002308704700BF0223026810B580F83930116A91
S3150800231841F211130B40044643B9116A40F244438B
S315080023280B401BB9136823F0010313602046FFF717
S31508002338E7FF002084F8390084F8380010BD00BF8C
S3150800234803680122186A02FA01F120EA010010B4AA
S3150800235818621A6A0A4C1143A34219620AD0094A32
S31508002368934207D01A685DF8044B42F00102002030
S315080023781A6070475A6C42F400425A64F2E700BF82
S315080023880000014000040140FFF7DABF036830B4D3
S315080023981A6A194D012404FA01F122EA01021A629D
S315080023A81A6A1A62AB4216D0144A934213D0196AAB
S315080023B841F211120A4042B9196A40F244420A40E7
S315080023C81AB91A6822F001021A60012380F839300E
S315080023D830BC00207047196A41F211120A40002AD7
S315080023E8E5D1196A40F244420A40002ADFD15A6CFC
S315080023F822F400425A64DAE700000140000401406A
S3150800240810B40C2938D8DFE801F02B3737373137BD
S3150800241837372537373707000368DA6842F0100276
S31508002428DA60186A184C012202FA01F120EA010258
S315080024381A621A6AA34241EA020119621ED0134AAD
S3150800244893421BD01A685DF8044B42F0010200203B
S315080024581A6070470368DA6842F00802DA60E0E74B
S315080024680368DA6842F00202DA60DAE70368DA68CB
S3150800247842F00402DA60D4E70368D2E75A6C42F4F9
S3150800248800425A64DEE700BF00000140000401402C
S31508002498FFF7B6BF10B40C2940D8DFE801F0393F7A
S315080024A83F3F333F3F3F2D3F3F3F07000368DA680A
S315080024B822F01002DA601A6A224C012000FA01F1A9
S315080024C822EA010119621A6A1A62A34228D01E4A28
S315080024D8934225D0196A41F211120A4042B9196A7B
S315080024E840F244420A401AB91A6822F001021A60F0
S315080024F800205DF8044B70470368DA6822F0080282
S31508002508DA60D8E70368DA6822F00402DA60D2E704
S315080025180368DA6822F00202DA60CCE70368CAE7D9
S31508002528196A41F211120A40002AD3D1196A40F2EF
S3150800253844420A40002ACDD15A6C22F400425A6411
S31508002548C8E700BF0000014000040140FFF7A2BF2A
S31508002558F8B590F83940E4B2022C15D090F839400D
S31508002568E4B2012C0CD00D4604460C2D68D8DFE8D9
S3150800257805F00D67676745676767346767675600D5
S31508002588002A5FD1002B5DD02046F8BD2668006A70
S315080025983149324FC163C764114606F13402FEF762
S315080025A827FF2368DA6842F40072DA60186A2C4C46
S315080025B8012202FA05F120EA01021A621A6AA342FE
S315080025C841EA0201196241D0264A93423ED01A6866
S315080025D842F001021A600020F8BD2668806A1E4982
S315080025E81E4FC163C764114606F13C02FEF700FF99
S315080025F82368DA6842F40062DA60D7E72668406A30
S315080026081549164FC163C764114606F13802FEF725
S31508002618EFFE2368DA6842F48062DA60C6E726685D
S31508002628C06A0D490D4FC163C764114606F14002D9
S31508002638FEF7DEFE2368DA6842F48052DA60B5E708
S315080026480368B3E7022480F839408CE75A6C42F4E9
S3150800265800425A64BBE700BFB9350008713700085D
S315080026680000014000040140FFF772BF30B40C298E
S3150800267842D8DFE801F03B414141354141412F410C
S31508002688414107000368DA6822F48052DA601A6A58
S31508002698234D012404FA01F122EA010119621A6A92
S315080026A81A62AB422AD01F4A934227D0196A41F2C6
S315080026B811120A4042B9196A40F244420A401AB944
S315080026C81A6822F001021A60012380F8393030BCF2
S315080026D8002070470368DA6822F40062DA60D6E7F1
S315080026E80368DA6822F48062DA60D0E70368DA6891
S315080026F822F40072DA60CAE70368C8E7196A41F281
S3150800270811120A40002AD1D1196A40F244420A40F5
S31508002718002ACBD15A6C22F400425A64C6E700BF95
S315080027280000014000040140FFF7A0BF704700BF42
S31508002738704700BF0223026810B580F83930116A5D
S3150800274841F211130B40044643B9116A40F2444357
S315080027580B401BB9136823F0010313602046FFF7E3
S31508002768E7FF002084F8390084F8380010BD00BF58
S3150800277803680122186A02FA01F120EA01001862C0
S315080027881A6A114319621A6842F001021A6000208F
S31508002798704700BF036801201A6A00FA01F122EAA5
S315080027A801021A621A6A1A62196A41F211120A4071
S315080027B842B9196A40F244420A401AB91A6822F01C
S315080027C801021A60002070470C292FD8DFE801F0AB
S315080027D8282E2E2E222E2E2E1C2E2E2E070003686D
S315080027E8DA6842F01002DA60186A012202FA01F180
S315080027F820EA01021A621A6A114319621A6842F033
S3150800280801021A60002070470368DA6842F0080275
S31508002818DA60E9E70368DA6842F00402DA60E3E7AF
S315080028280368DA6842F00202DA60DDE70368DBE784
S315080028380C2938D8DFE801F0313737372B373737DF
S315080028482537373707000368DA6822F01002DA6096
S315080028581A6A012000FA01F122EA010119621A6AC4
S315080028681A62196A41F211120A4042B9196A40F203
S3150800287844420A401AB91A6822F001021A6000206E
S3150800288870470368DA6822F00802DA60E0E7036846
S31508002898DA6822F00402DA60DAE70368DA6822F00E
S315080028A80202DA60D4E70368D2E700BFF8B590F801
S315080028B83940E4B2022C12D090F83940E4B2012C1F
S315080028C80FD00D4604460C2D5CD8DFE805F0105BE2
S315080028D85B5B2E5B5B5B3D5B5B5B4C001BB1204621
S315080028E8F8BD002AFAD0022480F83940E9E72168B9
S315080028F8006A254F254EC763C6643431FEF778FD4E
S315080029082068C36843F40073C360026A012303FAA4
S3150800291805F122EA01030362036A1943016203689F
S3150800292843F0010303600020F8BD2168406A164F8A
S31508002938164EC763C6643831FEF75AFD2068C36861
S3150800294843F48063C360E0E72168806A0E4F0F4E40
S31508002958C763C6643C31FEF74BFD2068C36843F479
S315080029680063C360D1E72168C06A074F074EC7638B
S31508002978C6644031FEF73CFD2068C36843F48053BB
S31508002988C360C2E70068C0E7693500087137000800
S3150800299810B40C293DD8DFE801F0363C3C3C303C05
S315080029A83C3C2A3C3C3C07000368DA6822F480521F
S315080029B8DA601A6A012404FA01F122EA01011962A5
S315080029C81A6A1A62196A41F211120A4042B9196A50
S315080029D840F244420A401AB91A6822F001021A60FB
S315080029E8012380F839305DF8044B002070470368E6
S315080029F8DA6822F40062DA60DBE70368DA6822F448
S31508002A088062DA60D5E70368DA6822F40072DA6069
S31508002A18CFE70368CDE700BF704700BF704700BF20
S31508002A280223026810B580F83930116A41F2111389
S31508002A380B40044643B9116A40F244430B401BB99C
S31508002A48136823F0010313602046FFF7E7FF002009
S31508002A5884F8390084F8380010BD00BF03680F49A8
S31508002A681A6A22F001021A621A6A42F001021A6206
S31508002A781A6A22F010021A621A6A8B4242F0100287
S31508002A881A6204D0064A934201D0002070475A6C4D
S31508002A9842F400425A640020704700BF0000014013
S31508002AA800040140036819491A6A22F001021A62E9
S31508002AB81A6A1A621A6A22F010021A621A6A1A62DC
S31508002AC88B4212D0124A93420FD0196A41F2111258
S31508002AD80A4042B9196A40F244420A401AB91A68C1
S31508002AE822F001021A6000207047196A41F2111291
S31508002AF80A40002AE9D1196A40F244420A40002AE3
S31508002B08E3D15A6C22F400425A64DEE70000014019
S31508002B180004014003681349DA6842F00202DA60E1
S31508002B28DA6842F00402DA601A6A22F001021A62C6
S31508002B381A6A42F001021A621A6A22F010021A6226
S31508002B481A6A8B4242F010021A6204D0064A934265
S31508002B5801D0002070475A6C42F400425A6400209B
S31508002B68704700BF000001400004014003681D4982
S31508002B78DA6822F00202DA60DA6822F00402DA6019
S31508002B881A6A22F001021A621A6A1A621A6A22F084
S31508002B9810021A621A6A1A628B4212D0124A9342B1
S31508002BA80FD0196A41F211120A4042B9196A40F25D
S31508002BB844420A401AB91A6822F001021A6000202B
S31508002BC87047196A41F211120A40002AE9D1196AAE
S31508002BD840F244420A40002AE3D15A6C22F40042E1
S31508002BE85A64DEE70000014000040140704700BF50
S31508002BF8704700BF0223026810B580F83930116A99
S31508002C0841F211130B40044643B9116A40F2444392
S31508002C180B401BB9136823F0010313602046FFF71E
S31508002C28E7FF002084F8390084F8380010BD00BF93
S31508002C38D1B1042916D003681A6A22F001021A6269
S31508002C481A6A42F001021A621A6A22F010021A6215
S31508002C581A6A42F010021A621A6842F001021A60E9
S31508002C68002070470368EFE703681A6A22F0010232
S31508002C781A621A6A42F001021A62EDE701B30429D8
S31508002C881CD003681A6A22F001021A621A6A1A62C2
S31508002C981A6A22F010021A621A6A1A62196A41F244
S31508002CA811120A4042B9196A40F244420A401AB94E
S31508002CB81A6822F001021A60002070470368E7E7DD
S31508002CC803681A6A22F001021A621A6A1A62E5E7A2
S31508002CD800292ED004291ED003681A6A22F0010298
S31508002CE81A621A6A42F001021A621A6A22F0100275
S31508002CF81A621A6A42F010021A62DA6842F0020286
S31508002D08DA60DA6842F00402DA601A6842F0010208
S31508002D181A600020704703681A6A22F010021A62BD
S31508002D281A6A42F010021A62DA6842F00402DA6095
S31508002D38EBE703681A6A22F001021A621A6A42F075
S31508002D4801021A62DA6842F00202DA60DDE700BFB9
S31508002D5803681A6AD9B922F001021A621A6A1A624B
S31508002D68DA6822F00202DA60196A41F211120A4098
S31508002D7842B9196A40F244420A401AB91A6822F056
S31508002D8801021A60012380F83930002070470429A7
S31508002D9813D022F001021A621A6A1A621A6A22F013
S31508002DA810021A621A6A1A62DA6822F00202DA60ED
S31508002DB8DA6822F00402DA60D6E722F010021A620C
S31508002DC81A6A1A62DA6822F00402DA60CCE700BFE7
S31508002DD82DE9F04190F83940BDF81860E4B2022CA4
S31508002DE80FD090F83940012C0ED004291F460C46FE
S31508002DF8054615D0182950D0002930D00020BDE83E
S31508002E08F0812046BDE8F081002A7CD0002B7AD0D4
S31508002E180224042980F839401F460C460546E9D19C
S31508002E282968406A3A4B3B4CC3633A463346C464FE
S31508002E383831FEF7DDFA2B68DA6842F48062DA6020
S31508002E481A6842F001021A601A6A22F010021A6217
S31508002E581A6A42F010021A620020BDE8F081296851
S31508002E68006A2B4B2B4FC363C76433463431FEF7CE
S31508002E78BFFA2B68DA6842F40072DA601A6842F018
S31508002E8801021A601A6A22F001021A621A6A42F0E4
S31508002E98010220461A62BDE8F0812968006ADFF84F
S31508002EA870801C4CC0F83C803346C4643431FEF745
S31508002EB89FFA2968686A33463A46C0F83C80C4646B
S31508002EC83831FEF795FA2B681A6842F001021A603B
S31508002ED81A6A22F001021A621A6A42F001021A6292
S31508002EE81A6A22F010021A621A6A42F010021A6264
S31508002EF8DA6842F40072DA60DA6842F48062DA6004
S31508002F080020BDE8F081002E82D00120BDE8F081BE
S31508002F18693500087137000803681A6AD9B922F0B2
S31508002F2801021A621A6A1A62DA6822F40072DA6008
S31508002F38196A41F211120A4042B9196A40F2444222
S31508002F480A401AB91A6822F001021A60012380F8A1
S31508002F58393000207047042913D022F001021A627A
S31508002F681A6A1A621A6A22F010021A621A6A1A6227
S31508002F78DA6822F40072DA60DA6822F48062DA60C3
S31508002F88D6E722F010021A621A6A1A62DA6822F476
S31508002F988062DA60CCE700BFF8B590F83940069D3C
S31508002FA8E4B2022C19D090F83940E4B2012C2AD0A0
S31508002FB8B2F5006F16460F4604462FD00FD8B2F55D
S31508002FC8007F40D0B2F5806F41D0B2F5807F0FD12F
S31508002FD8C0692268244924E0BDB12046F8BDB2F587
S31508002FE8005F2CD0B2F5804F39D0B2F5805F32D069
S31508002FF823683D439D64DA6801211643DE60002094
S3150800300884F83910F8BD002BE6D00224B2F5006F13
S3150800301880F8394016460F460446CFD1806A22689A
S315080030281249DFF854C0C1634FEA152E1946C0F88D
S315080030384CC04C320EF10103FEF7DAF9D8E7006BFB
S3150800304822680B49EDE7006A22680849E9E7406AF9
S3150800305822680649E5E7C06A22680449E1E7406B41
S3150800306822680449DDE700BF51350008B93500086C
S31508003078E11100085D37000871370008F8B590F8BF
S315080030883940069DE4B2022C19D090F83940E4B2CA
S31508003098012C2AD0B2F5006F16460F4604462FD0E3
S315080030A80FD8B2F5007F40D0B2F5806F41D0B2F59F
S315080030B8807F0FD1C0692168244A24E0BDB1204623
S315080030C8F8BDB2F5005F2CD0B2F5804F39D0B2F50D
S315080030D8805F32D023683D439D64DA680121164330
S315080030E8DE60002084F83910F8BD002BE6D00224EB
S315080030F8B2F5006F80F8394016460F460446CFD118
S31508003108806A2168124ADFF854C0C2634FEA152E4E
S315080031181A46C0F84CC04C310EF10103FEF768F99F
S31508003128D8E7006B21680B4AEDE7006A2168084A68
S31508003138E9E7406A2168064AE5E7C06A2168044A59
S31508003148E1E7406B2168044ADDE700BF513500080E
S3150800315869350008E11100085D370008713700086D
S31508003168B1F5006F38B50C46054630D012D9B1F519
S31508003178005F24D0B1F5804F1DD0B1F5805F02D12C
S31508003188C06AFEF777F92B68D96821EA0404DC6077
S31508003198002038BDB1F5007F15D0B1F5806F06D08F
S315080031A8B1F5807FEFD1C069FEF764F9EBE7406AAD
S315080031B8FEF760F9E7E7406BFEF75CF9E3E7006BB3
S315080031C8FEF758F9DFE7006AFEF754F9DBE7806A85
S315080031D8FEF750F9D7E700BFFFF7C2BF90F83820C7
S315080031E8012A0FD030B403460568012402200022BC
S315080031F883F839006961104683F8394083F838201E
S3150800320830BC70470220704790F83830012B25D01B
S315080032184B68F0B401250224AB4280F8385080F890
S3150800322839401DD00C2A10D8DFE802F0270F0F0FF7
S315080032382F0F0F0F070F0F0F37000B680268002BA9
S3150800324842D0D36943F08003D3610023012280F872
S31508003258392080F83830F0BC184670470220704785
S315080032680768CB68BC688D680E6924F47F442B43CD
S31508003278234343EA0623BB60D4E70B680268A3B175
S31508003288936943F080039361DFE70B680268B3B17B
S31508003298936943F400439361D7E70B6802684BB117
S315080032A8D36943F40043D361CFE7936923F08003D6
S315080032B89361CAE7D36923F40043D361C5E79369E1
S315080032C823F400439361C0E7D36923F08003D361ED
S315080032D8BBE700BF90F83830012B40D002220368BC
S315080032E870B480F839209A680C6822F47F4222F074
S315080032F877020125402C80F838509A6073D018D97F
S31508003308702C60D02DD9B4F5805F57D0B4F5005F1E
S315080033181CD19C688A684D68CE682A4324F47F4184
S315080033280A4342EA06229A609A6842F480429A60F8
S315080033380CE0102C32D038D9202C6CD0302C05D182
S315080033489A6822F0700242F037029A600023012236
S3150800335880F8392080F8383070BC18467047022043
S315080033687047502C5ED0602CF0D11C6A4D68CE6828
S3150800337824F010041C6299691A6A21F4704122F033
S31508003388A00242EA051241EA063199611A629A6868
S3150800339822F0700242F067029A60D7E79A6822F02C
S315080033A8700242F017029A60D0E7002CCED19A68CC
S315080033B822F0700242F007029A60C7E79A6822F07C
S315080033C807029A60C2E79C688A684D68CE682A43ED
S315080033D824F47F410A4342EA06229A609A6842F030
S315080033E877029A60B2E71A6A1C6A4E68CD6824F0B2
S315080033F801041C62996922F00A0221F0F00132439D
S3150800340841EA051199611A629A6822F0700242F037
S3150800341847029A609AE79A6822F0700242F02702F1
S315080034289A6093E71A6A1C6A4E68CD6824F0010404
S315080034381C62996922F00A0221F0F001324341EA36
S31508003448051199611A629A6822F0700242F05702C9
S315080034589A607BE70268536823F080031943516032
S315080034680020704790F83820012A01D102207047B9
S3150800347838B504460125022380F8385080F83930D3
S31508003488FEF7D8FD2368DA6822F04002DA60DA68BF
S31508003498002122F48042DA60084684F8395084F814
S315080034A8381038BD90F83820012A01D10220704713
S315080034B838B504460125022380F8385080F8393093
S315080034C8FEF7B8FD2368DA6842F04002DA60DA687F
S315080034D8002122F48042DA60084684F8395084F8D4
S315080034E8381038BD90F83830012B02460AD00C2916
S315080034F826D8DFE801F010252525172525251E25B8
S31508003508252509000220704703681B6C0021184608
S3150800351882F83810704703685B6B0021184682F8F2
S315080035283810704703689B6B0021184682F83810D4
S3150800353870470368DB6B0021184682F83810704715
S315080035480023E3E7704700BF08B5806B012380F8BE
S31508003558393000F01BFD08BD704700BF704700BF33
S3150800356810B5846B226A0123904284F839300FD04B
S31508003578636A984213D0A36A984213D0E36A9842BA
S3150800358805D02046FFF7EAFF0023237610BD082357
S3150800359823762046FFF7E2FF0023237610BD022391
S315080035A82376EEE704232376EBE700BF704700BFD0
S315080035B810B5846B226A0123904284F839300FD0FB
S315080035C8636A984213D0A36A984213D0E36A98426A
S315080035D805D02046FFF7EAFF0023237610BD082307
S315080035E823762046FFF7E2FF0023237610BD022341
S315080035F82376EEE704232376EBE700BF704700BF80
S3150800360803681A69910710B5044602D5DA6892075D
S3150800361862D41A69500702D5DA68510749D41A6973
S31508003628120702D5DA68100731D41A69D20602D504
S31508003638DA68D00618D41A69D10702D5DA68D20723
S315080036486BD41A69100602D5DA6811066DD41A6998
S31508003658520602D5DA68500657D41A69910602D571
S31508003668DA68920649D410BD6FF010021A61DB6950
S31508003678082213F4407F2276204661D1FFF76CFFB3
S315080036882046FFF793FF002223682276D3E76FF0D8
S3150800369808021A61DB69042299072276204655D161
S315080036A8FFF75AFF2046FFF781FF00222368227694
S315080036B8BBE76FF004021A619B69022213F4407F84
S315080036C8227620463FD1FFF747FF2046FFF76EFFD1
S315080036D8002223682276A2E76FF002021A619B6924
S315080036E801229B07027628D1FFF736FF2046FFF707
S315080036F85DFF0022236822768BE76FF020022046BA
S315080037081A61BDE81040FDF765BD6FF040021A6101
S315080037182046FFF773FF23689FE76FF001021A61D7
S31508003728204600F033FC23688BE76FF080021A61A5
S315080037382046FDF759FD236889E7FFF70FFFD8E705
S31508003748FFF70CFF9FE7FFF709FFC1E7FFF706FF3B
S31508003758ABE700BF08B5806B012380F83930FFF75F
S315080037684DFF08BD704700BF08B5806B012380F878
S315080037783930FFF7F7FF08BD90F83900704700BFE2
S3150800378890F83900704700BF90F83900704700BFB5
S3150800379890F83900704700BF90F83900704700BFA5
S315080037A890F83900704700BF364A0368904270B4EB
S315080037B854D0B0F1804F30D0A2F57C4290422CD03C
S315080037C802F58062904228D002F58062904224D0A1
S315080037D802F57842904220D002F57052904230D0D5
S315080037E802F5806290422CD002F58062904228D079
S315080037F8A2F59832904224D002F58062904220D0F1
S3150800380802F5806290421CD08C680A68036001231E
S31508003818C462826270BC436170474A681A4C8E68F3
S315080038280D6823F070031343CA6823F440731343DF
S31508003838A0420360C66285621DD00123436170BC3D
S315080038487047CA688C68096823F440731343036091
S315080038580123C462816270BC436170474A68CC68B8
S315080038688E680D6823F070031A4322F440722243C7
S315080038780260C66285620B6903630123436170BCF3
S31508003888704700BF0000014000040140B8B190F835
S31508003898393010B503F0FF0204465BB1022384F8F9
S315080038A839302068211DFFF77FFF012384F8393056
S315080038B8002010BD80F83820FEF714FCEEE701203A
S315080038C8704700BFB8B190F8393010B503F0FF0259
S315080038D804465BB1022384F839302068211DFFF7B6
S315080038E863FF012384F83930002010BD80F838209A
S315080038F8FEF7AAFCEEE70120704700BFB8B190F8BA
S31508003908393010B503F0FF0204465BB1022384F888
S3150800391839302068211DFFF747FF012384F839301D
S31508003928002010BD80F83820FEF7E8FCEEE70120F5
S31508003938704700BFB8B190F8393010B503F0FF02E8
S3150800394804465BB1022384F839302068211DFFF745
S315080039582BFF012384F83930002010BD80F8382061
S31508003968FEF7E4FEEEE70120704700BF00B338B55E
S3150800397890F8393004460D4603F0FF029BB102233E
S3150800398884F83930211D2068FFF70EFF23681A6866
S3150800399822F008021A6019680122294319600020D2
S315080039A884F8392038BD80F83820FFF735F8E6E777
S315080039B80120704700284ED02DE9F04190F839309B
S315080039C882B005460C4603F0FF02002B3ED0294676
S315080039D8022351F8040B85F83930836823F0070366
S315080039E88360FFF7E1FE2E68A769D6F808C0B169B3
S315080039F8326A206821F44073E169019123F00303D0
S31508003A08A16843EA072327690B4301993F0147EA57
S31508003A180121E76822F0AA08226A0F4347EA023713
S31508003A286269616823F47C434CEA000048EA02129A
S31508003A3823F0FC03B0600A433B4301210020B3612D
S31508003A48326285F8391002B0BDE8F08180F838206E
S31508003A58FFF7CCF8BBE70120704700BF70B4046ACB
S31508003A681C4E24F001040462B0428569046A1FD01A
S31508003A78B0F1804F1CD0A6F57C46B04218D006F5A2
S31508003A888066B04214D006F58066B04210D006F5B6
S31508003A987846B0420CD006F57056B04208D0A6F55E
S31508003AA89436B04204D025F0030242F0010202E03F
S31508003AB825F003052A431B01DBB222F0F00224F0A5
S31508003AC80A0401F00A010C431A438261046270BCB5
S31508003AD8704700BF00000140F8B590F83830012B50
S31508003AE839D00D4602230121044680F8381080F89B
S31508003AF83930002A31D0042A3FD0082A63D0016811
S31508003B08EB680A6A2E68D5F804E0AF6822F4805292
S31508003B180A62CA69086A22F4407235031E0342EA31
S31508003B280E2305F42045B6B223F4704320F4204248
S31508003B3833432A43CB610A62CB6923F44063CB61DA
S31508003B48CB6943EA0727CF610123002084F8393077
S31508003B5884F83800F8BD0220F8BD95E80600EB6839
S31508003B680068FFF77BFF2368AA68996921F00C01AA
S31508003B78996199690A439A61E6E70368EA68196ADE
S31508003B882E68D5F804E0AF6821F010011962996922
S31508003B98186A21F440713501160341EA0E2205F028
S31508003BA8A005B6B222F4704220F0A0013243294398
S31508003BB89A6119629A6922F440629A619A6942EA94
S31508003BC807279F61C0E70368EA68196A2E68D5F867
S31508003BD804E0AF6821F480711962D969186A21F07E
S31508003BE80301350216014EEA010205F42065F6B20C
S31508003BF822F0F00220F4206132432943DA6119627F
S31508003C08DA6922F00C02DA61DA691743DF619BE7A1
S31508003C18F0B5046AD1F808E00E68154D24F01004CA
S31508003C280462036A4768826923F0200322F4E6429D
S31508003C38A84243EA0E1342EA062208D00D4CA042CF
S31508003C4805D049684760826181630362F0BDCE6822
S31508003C584D698C6927F4406723F0800343EA061305
S31508003C6847EA850523F0400345EA8407E9E700BFE4
S31508003C78000001400004014090F83830012B1CD0A0
S31508003C8810B504460223012084F8380084F8393030
S31508003C980C2A0BD8DFE802F0170A0A0A070A0A0AE2
S31508003CA81B0A0A0A13002068FFF7B2FF012300203F
S31508003CB884F8393084F8380010BD02207047206827
S31508003CC8FEF790F9F2E72068FEF728F9EEE720688C
S31508003CD8FEF754F9EAE700BF38B590F83830012BF3
S31508003CE82BD00D4602230121044680F8381080F8A7
S31508003CF839300C2A1AD8DFE802F0351919190719C4
S31508003D08191947191919220029460068FFF780FF6B
S31508003D1823682869996941F400619961996921F4C8
S31508003D28806199619A6942EA00229A610123002012
S31508003D3884F8393084F8380038BD022038BD294659
S31508003D480068FEF74FF923682869D96941F40061C4
S31508003D58D961D96921F48061D961DA6942EA002210
S31508003D68DA61E3E729460068FEF7D8F823682A697E
S31508003D78996941F008019961996921F004019961E5
S31508003D8899690A439A61D1E729460068FEF7F6F861
S31508003D9823682A69D96941F00801D961D96921F0E6
S31508003DA80401D961D9690A43DA61BFE79A4274D02E
S31508003DB8F0B590F83850012D89B052D00C461E46F9
S31508003DC80AC905460127022085F838700191A768AF
S31508003DD8216985F839000293E068636903970490B6
S31508003DE806910793002A5AD0042A3DD0002E41D0BE
S31508003DF8042E2ED12B68A669196AE269276A21F06A
S31508003E08100119629969186A21F44071340141EA66
S31508003E1802223E0304F0A004B6B222F4704220F04F
S31508003E28A001324321439A6119629A6922F44062D1
S31508003E389A619A6822F070029A609A6842F060025B
S31508003E489A609A6822F007029A609A6842F006020F
S31508003E589A600020012385F8393085F8380009B0BA
S31508003E68F0BD022009B0F0BD01A92868FFF7D0FE09
S31508003E78002EBDD104F118010EC92868FFF7EEFD1A
S31508003E882B689A6922F00C029A619A6822F07002E5
S31508003E989A609A6842F05002D2E70120704701A951
S31508003EA82868FEF73BF8A1E710B40123046A8B409B
S31508003EB824EA03030362036A5DF8044B8A4042EA6C
S31508003EC803010162704700BF704700BF704700BF13
S31508003ED8704700BF704700BF10B5014688B000227A
S31508003EE83620FDF7F1FE3620FDF726FF194B00228E
S31508003EF802921A6C42F010021A641B6C03F0100343
S31508003F08029301A903A8029BFCF726FD069BBBB9E9
S31508003F18FCF780FC104C114B114A2260A3FB0023C6
S31508003F289B0C0022013B40F2E73120466360E160C2
S31508003F382261A260FFF7AAFC30B1012008B010BDC3
S31508003F48FCF768FC4000E5E72046FEF715F908B0D7
S31508003F5810BD00BF003802406004002083DE1B4302
S31508003F6800100040034B1A68D36823F00103D36096
S31508003F78704700BF60040020034B1A68D36843F0F3
S31508003F880103D360704700BF6004002000F050B8F2
S31508003F980148FFF735BB00BF60040020704700BF23
S31508003FA8704700BF10B5094B4FF0FF3200241A625C
S31508003FB81C625A625C621A611C615A615C619A6188
S31508003FC89C61FFF783FF204610BD00BF00380240FA
S31508003FD8084B094A1B6810B5A2FB0323044698092F
S31508003FE8FDF7D6FE214600224FF0FF30FDF76CFE9E
S31508003FF8002010BD00000020D34D621008B50B4BF9
S315080040081A6842F400721A601A6842F480621A60E2
S315080040181A6842F480721A600320FDF743FE0F20DF
S31508004028FFF75AFFFFF750FF002008BD003C024083
S31508004038024A136801331360704700BF9C040020C6
S31508004048014B1868704700BF9C04002010B582B061
S315080040580190FFF7F5FF0446FFF7F2FF019B001BE7
S315080040689842F9D302B010BD024A136823F0020336
S315080040781360704710E000E0024A136843F0020331
S315080040881360704710E000E04FF08370704700BF78
S31508004098014B1868000C7047002004E0024B1868AA
S315080040A8C0F30B00704700BF002004E0024A5368BB
S315080040B843F0010353607047002004E0024A53683E
S315080040C823F0010353607047002004E0024A53684E
S315080040D843F0020353607047002004E0024A53681D
S315080040E823F0020353607047002004E0024A53682D
S315080040F843F0040353607047002004E0024A5368FB
S3150800410823F0040353607047002004E0012191FA64
S31508004118A1F2034BB2FA82F213449B001960704766
S3150800412800C18910012292FAA2F2044BB2FA82F26D
S3150800413813449B0000221A60704700BF00C189100B
S315080041481049114BD1F8882042F4700210B4C1F80E
S3150800415888201A680D4C002042F001021A609860FF
S315080041681A6822F0847222F480321A605C601A682F
S315080041784FF0006422F480221A60D8608C605DF8DB
S31508004188044B704700ED00E0003802401030002468
S315080041981848836803F00C03042B29D0082B0AD087
S315080041A8154B144A154892681549C2F30312825CDE
S315080041B8D3400B6070474368416813F4800F43681F
S315080041C818BF104801F03F020CBF0B49B0FBF2F1CB
S315080041D8C3F3881308BFB1FBF2F101FB03F2054BE1
S315080041E85B68C3F3014301335B00B2FBF3F3D8E71B
S315080041F8044BD6E7003802400024F4009C45000822
S315080042080000002040787D01013070470130401ACF
S3150800421818BF4FF0FF30704730B50E4B0E4A0F489F
S3150800422883B000244FF4405101941960116BDC6087
S3150800423841F008011163126B02F00802194601924F
S31508004248012502245D609C60019BFDF751FB03B0C4
S3150800425830BD00BF4C04002000380240000C024064
S3150800426840B1012805D102464FF400510448FDF72C
S31508004278EDBC704701224FF480510148FDF7E6BCB2
S31508004288000C024040B1012805D100224FF4005124
S315080042980448FDF7DBBC704702464FF480510148D5
S315080042A8FDF7D4BC000C024038B1012804D14FF4FC
S315080042B800510448FDF7CEBC70474FF480510148B9
S315080042C8FDF7C8BC000C0240F0B595B0FFF796FE9E
S315080042D80020264A0190116C254B41F08051116443
S315080042E8126C02F080520192019A02901A6842F4FE
S315080042F880421A601B6803F480430293022401274C
S315080043084FF480364FF4800508214FF4A872072326
S3150800431808A8DDF808E0089709960E9412940F95F0
S31508004328109111921393FBF75BFF00B1FEE7034662
S315080043380F264FF4A0554FF48052052103A804947C
S315080043480593039606950792FCF7A8F900B1FEE7C8
S31508004358FFF79EFE41F20103984204D1054A136805
S3150800436843F48073136015B0F0BD00BF00380240EF
S3150800437800700040003C024038B10022034B00BFE1
S31508004388013BFCD101329042F8D1704740900200B7
S3150800439870B50F4E0F4D761BB61018BF002405D002
S315080043A8013455F8043B9847A642F9D10A4E0B4DF5
S315080043B8761B00F0D7F8B61018BF002406D00134CB
S315080043C855F8043B9847A642F9D170BD70BD00BFA1
S315080043D8B8450008B8450008C0450008B8450008AB
S315080043E8024B13B1024800F005B8704700000000F8
S315080043F809440008002301461A46184600F014B86E
S3150800440838B5074D074C2C1BA41005D0013C55F8A8
S31508004418043D9847002CF9D1BDE8384000F0A8B803
S31508004428C4450008C04500082DE9F047254C25680D
S31508004438D5F848410646884692469946C4B3606800
S315080044481F2817DC431C76B104EB80050122C5F842
S3150800445888A0D4F8881182401143022EC4F888111E
S31508004468C5F808911ED00230636044F82080002001
S31508004478BDE8F087144B03B34FF4C870AFF3008058
S315080044880446D0B1D5F84831002780E88800C5F831
S31508004498484138460123C4F88871C4F88C71002E3F
S315080044A8E1D0D1E7D4F88C110A43C4F88C21DAE7AD
S315080044B805F5A674C5F84841C1E74FF0FF30BDE8D1
S315080044C8F08700BFB445000800000000DFF834D0C4
S315080044D8002103E00C4B5B58435004310B480C4B46
S315080044E842189A42F6D30B4A02E0002342F8043BE4
S315080044F8094B9A42F9D3FFF723FEFFF749FF00F065
S315080045080FF87047FF9F0020C445000800000020E8
S315080045183004002030040020A0040020FEE7000034
S3150800452810B5FFF7D1FEFFF777FE002011E0FFF779
S3150800453897FE0120FFF7A6FE3220FFF71DFF002091
S31508004548FFF7A0FE0120FFF78BFE3220FFF714FFC6
S315080045582046441C2146FFF759FE00284FF0000064
S31508004568E5DAFEE7F8B500BFF8BC08BC9E46704712
S31108004578F8B500BFF8BC08BC9E467047AA
S3150800458400000000010203040102030406070809E7
S3150800459400061016000610160000000000000000B1
S315080045A401020304060708090000000001020304C7
S309080045B408000020CD
S30D080045B8E9430008AD01000803
S309080045C08901000857
S315080045C40024F4000000000000000000F4020020AB
S315080045D45C030020C4030020000000000000000063
S315080045E400000000000000000000000000000000B9
S315080045F400000000000000000000000000000000A9
S315080046040000000000000000000000000000000098
S315080046140000000000000000000000000000000088
S315080046240000000000000000000000000000000078
S315080046340000000000000000000000000000000068
S315080046440000000000000000000000000000000058
S315080046540000000000000000000000000000000048
S315080046640000000000000000000000000000000038
S3150800467401000000000000000E33CDAB34126DE6D5
S31508004684ECDE05000B00000000000000000000003E
S315080046940000000000000000000000000000000008
S315080046A400000000000000000000000000000000F8
S315080046B400000000000000000000000000000000E8
S315080046C400000000000000000000000000000000D8
S705080044D5D9
